{
  "address": "0x83415985AFAda556689b1675cB468B9390b2db67",
  "abi": [
    {
      "inputs": [
        {
          "internalType": "address",
          "name": "_endpoint",
          "type": "address"
        }
      ],
      "stateMutability": "nonpayable",
      "type": "constructor"
    },
    {
      "anonymous": false,
      "inputs": [
        {
          "indexed": false,
          "internalType": "uint16",
          "name": "_srcChainId",
          "type": "uint16"
        },
        {
          "indexed": false,
          "internalType": "bytes",
          "name": "_srcAddress",
          "type": "bytes"
        },
        {
          "indexed": false,
          "internalType": "uint64",
          "name": "_nonce",
          "type": "uint64"
        },
        {
          "indexed": false,
          "internalType": "bytes",
          "name": "_payload",
          "type": "bytes"
        },
        {
          "indexed": false,
          "internalType": "bytes",
          "name": "_reason",
          "type": "bytes"
        }
      ],
      "name": "MessageFailed",
      "type": "event"
    },
    {
      "anonymous": false,
      "inputs": [
        {
          "indexed": true,
          "internalType": "address",
          "name": "previousOwner",
          "type": "address"
        },
        {
          "indexed": true,
          "internalType": "address",
          "name": "newOwner",
          "type": "address"
        }
      ],
      "name": "OwnershipTransferred",
      "type": "event"
    },
    {
      "anonymous": false,
      "inputs": [
        {
          "indexed": false,
          "internalType": "uint16",
          "name": "_srcChainId",
          "type": "uint16"
        },
        {
          "indexed": false,
          "internalType": "bytes",
          "name": "_srcAddress",
          "type": "bytes"
        },
        {
          "indexed": false,
          "internalType": "uint64",
          "name": "_nonce",
          "type": "uint64"
        },
        {
          "indexed": false,
          "internalType": "bytes32",
          "name": "_payloadHash",
          "type": "bytes32"
        }
      ],
      "name": "RetryMessageSuccess",
      "type": "event"
    },
    {
      "anonymous": false,
      "inputs": [
        {
          "indexed": true,
          "internalType": "uint16",
          "name": "_dstChainId",
          "type": "uint16"
        },
        {
          "indexed": true,
          "internalType": "address",
          "name": "_from",
          "type": "address"
        },
        {
          "indexed": false,
          "internalType": "bytes",
          "name": "_toAddress",
          "type": "bytes"
        }
      ],
      "name": "SendToChain",
      "type": "event"
    },
    {
      "anonymous": false,
      "inputs": [
        {
          "indexed": false,
          "internalType": "uint16",
          "name": "_dstChainId",
          "type": "uint16"
        },
        {
          "indexed": false,
          "internalType": "uint16",
          "name": "_type",
          "type": "uint16"
        },
        {
          "indexed": false,
          "internalType": "uint256",
          "name": "_minDstGas",
          "type": "uint256"
        }
      ],
      "name": "SetMinDstGas",
      "type": "event"
    },
    {
      "anonymous": false,
      "inputs": [
        {
          "indexed": false,
          "internalType": "address",
          "name": "precrime",
          "type": "address"
        }
      ],
      "name": "SetPrecrime",
      "type": "event"
    },
    {
      "anonymous": false,
      "inputs": [
        {
          "indexed": false,
          "internalType": "uint16",
          "name": "_remoteChainId",
          "type": "uint16"
        },
        {
          "indexed": false,
          "internalType": "bytes",
          "name": "_path",
          "type": "bytes"
        }
      ],
      "name": "SetTrustedRemote",
      "type": "event"
    },
    {
      "anonymous": false,
      "inputs": [
        {
          "indexed": false,
          "internalType": "uint16",
          "name": "_remoteChainId",
          "type": "uint16"
        },
        {
          "indexed": false,
          "internalType": "bytes",
          "name": "_remoteAddress",
          "type": "bytes"
        }
      ],
      "name": "SetTrustedRemoteAddress",
      "type": "event"
    },
    {
      "inputs": [],
      "name": "DEFAULT_PAYLOAD_SIZE_LIMIT",
      "outputs": [
        {
          "internalType": "uint256",
          "name": "",
          "type": "uint256"
        }
      ],
      "stateMutability": "view",
      "type": "function"
    },
    {
      "inputs": [
        {
          "internalType": "uint16",
          "name": "_dstChainId",
          "type": "uint16"
        }
      ],
      "name": "estimateCallbackFee",
      "outputs": [
        {
          "internalType": "uint256",
          "name": "nativeFee",
          "type": "uint256"
        },
        {
          "internalType": "uint256",
          "name": "zroFee",
          "type": "uint256"
        }
      ],
      "stateMutability": "view",
      "type": "function"
    },
    {
      "inputs": [
        {
          "internalType": "uint16",
          "name": "_dstChainId",
          "type": "uint16"
        },
        {
          "internalType": "uint256",
          "name": "_callBackNativeFee",
          "type": "uint256"
        }
      ],
      "name": "estimatePingFee",
      "outputs": [
        {
          "internalType": "uint256",
          "name": "nativeFee",
          "type": "uint256"
        },
        {
          "internalType": "uint256",
          "name": "zroFee",
          "type": "uint256"
        }
      ],
      "stateMutability": "view",
      "type": "function"
    },
    {
      "inputs": [
        {
          "internalType": "uint16",
          "name": "",
          "type": "uint16"
        },
        {
          "internalType": "bytes",
          "name": "",
          "type": "bytes"
        },
        {
          "internalType": "uint64",
          "name": "",
          "type": "uint64"
        }
      ],
      "name": "failedMessages",
      "outputs": [
        {
          "internalType": "bytes32",
          "name": "",
          "type": "bytes32"
        }
      ],
      "stateMutability": "view",
      "type": "function"
    },
    {
      "inputs": [
        {
          "internalType": "uint16",
          "name": "_srcChainId",
          "type": "uint16"
        },
        {
          "internalType": "bytes",
          "name": "_srcAddress",
          "type": "bytes"
        }
      ],
      "name": "forceResumeReceive",
      "outputs": [],
      "stateMutability": "nonpayable",
      "type": "function"
    },
    {
      "inputs": [
        {
          "internalType": "uint16",
          "name": "_version",
          "type": "uint16"
        },
        {
          "internalType": "uint16",
          "name": "_chainId",
          "type": "uint16"
        },
        {
          "internalType": "address",
          "name": "",
          "type": "address"
        },
        {
          "internalType": "uint256",
          "name": "_configType",
          "type": "uint256"
        }
      ],
      "name": "getConfig",
      "outputs": [
        {
          "internalType": "bytes",
          "name": "",
          "type": "bytes"
        }
      ],
      "stateMutability": "view",
      "type": "function"
    },
    {
      "inputs": [
        {
          "internalType": "uint16",
          "name": "_remoteChainId",
          "type": "uint16"
        }
      ],
      "name": "getTrustedRemoteAddress",
      "outputs": [
        {
          "internalType": "bytes",
          "name": "",
          "type": "bytes"
        }
      ],
      "stateMutability": "view",
      "type": "function"
    },
    {
      "inputs": [
        {
          "internalType": "uint16",
          "name": "_srcChainId",
          "type": "uint16"
        },
        {
          "internalType": "bytes",
          "name": "_srcAddress",
          "type": "bytes"
        }
      ],
      "name": "isTrustedRemote",
      "outputs": [
        {
          "internalType": "bool",
          "name": "",
          "type": "bool"
        }
      ],
      "stateMutability": "view",
      "type": "function"
    },
    {
      "inputs": [],
      "name": "lzEndpoint",
      "outputs": [
        {
          "internalType": "contract ILayerZeroEndpoint",
          "name": "",
          "type": "address"
        }
      ],
      "stateMutability": "view",
      "type": "function"
    },
    {
      "inputs": [
        {
          "internalType": "uint16",
          "name": "_srcChainId",
          "type": "uint16"
        },
        {
          "internalType": "bytes",
          "name": "_srcAddress",
          "type": "bytes"
        },
        {
          "internalType": "uint64",
          "name": "_nonce",
          "type": "uint64"
        },
        {
          "internalType": "bytes",
          "name": "_payload",
          "type": "bytes"
        }
      ],
      "name": "lzReceive",
      "outputs": [],
      "stateMutability": "nonpayable",
      "type": "function"
    },
    {
      "inputs": [
        {
          "internalType": "uint16",
          "name": "",
          "type": "uint16"
        },
        {
          "internalType": "uint16",
          "name": "",
          "type": "uint16"
        }
      ],
      "name": "minDstGasLookup",
      "outputs": [
        {
          "internalType": "uint256",
          "name": "",
          "type": "uint256"
        }
      ],
      "stateMutability": "view",
      "type": "function"
    },
    {
      "inputs": [
        {
          "internalType": "uint16",
          "name": "_srcChainId",
          "type": "uint16"
        },
        {
          "internalType": "bytes",
          "name": "_srcAddress",
          "type": "bytes"
        },
        {
          "internalType": "uint64",
          "name": "_nonce",
          "type": "uint64"
        },
        {
          "internalType": "bytes",
          "name": "_payload",
          "type": "bytes"
        }
      ],
      "name": "nonblockingLzReceive",
      "outputs": [],
      "stateMutability": "nonpayable",
      "type": "function"
    },
    {
      "inputs": [],
      "name": "nonce",
      "outputs": [
        {
          "internalType": "uint256",
          "name": "",
          "type": "uint256"
        }
      ],
      "stateMutability": "view",
      "type": "function"
    },
    {
      "inputs": [],
      "name": "owner",
      "outputs": [
        {
          "internalType": "address",
          "name": "",
          "type": "address"
        }
      ],
      "stateMutability": "view",
      "type": "function"
    },
    {
      "inputs": [
        {
          "internalType": "uint16",
          "name": "",
          "type": "uint16"
        }
      ],
      "name": "payloadSizeLimitLookup",
      "outputs": [
        {
          "internalType": "uint256",
          "name": "",
          "type": "uint256"
        }
      ],
      "stateMutability": "view",
      "type": "function"
    },
    {
      "inputs": [
        {
          "internalType": "uint16",
          "name": "_dstChainId",
          "type": "uint16"
        },
        {
          "internalType": "uint256",
          "name": "_callbackTxNativeFee",
          "type": "uint256"
        }
      ],
      "name": "ping",
      "outputs": [],
      "stateMutability": "payable",
      "type": "function"
    },
    {
      "inputs": [],
      "name": "precrime",
      "outputs": [
        {
          "internalType": "address",
          "name": "",
          "type": "address"
        }
      ],
      "stateMutability": "view",
      "type": "function"
    },
    {
      "inputs": [
        {
          "internalType": "uint256",
          "name": "",
          "type": "uint256"
        }
      ],
      "name": "received",
      "outputs": [
        {
          "internalType": "bool",
          "name": "",
          "type": "bool"
        }
      ],
      "stateMutability": "view",
      "type": "function"
    },
    {
      "inputs": [],
      "name": "renounceOwnership",
      "outputs": [],
      "stateMutability": "nonpayable",
      "type": "function"
    },
    {
      "inputs": [
        {
          "internalType": "uint16",
          "name": "_srcChainId",
          "type": "uint16"
        },
        {
          "internalType": "bytes",
          "name": "_srcAddress",
          "type": "bytes"
        },
        {
          "internalType": "uint64",
          "name": "_nonce",
          "type": "uint64"
        },
        {
          "internalType": "bytes",
          "name": "_payload",
          "type": "bytes"
        }
      ],
      "name": "retryMessage",
      "outputs": [],
      "stateMutability": "payable",
      "type": "function"
    },
    {
      "inputs": [
        {
          "internalType": "uint256",
          "name": "",
          "type": "uint256"
        }
      ],
      "name": "sent",
      "outputs": [
        {
          "internalType": "bool",
          "name": "sent",
          "type": "bool"
        },
        {
          "internalType": "bool",
          "name": "receivedCallback",
          "type": "bool"
        }
      ],
      "stateMutability": "view",
      "type": "function"
    },
    {
      "inputs": [
        {
          "internalType": "uint16",
          "name": "_version",
          "type": "uint16"
        },
        {
          "internalType": "uint16",
          "name": "_chainId",
          "type": "uint16"
        },
        {
          "internalType": "uint256",
          "name": "_configType",
          "type": "uint256"
        },
        {
          "internalType": "bytes",
          "name": "_config",
          "type": "bytes"
        }
      ],
      "name": "setConfig",
      "outputs": [],
      "stateMutability": "nonpayable",
      "type": "function"
    },
    {
      "inputs": [
        {
          "internalType": "uint16",
          "name": "_dstChainId",
          "type": "uint16"
        },
        {
          "internalType": "uint16",
          "name": "_packetType",
          "type": "uint16"
        },
        {
          "internalType": "uint256",
          "name": "_minGas",
          "type": "uint256"
        }
      ],
      "name": "setMinDstGas",
      "outputs": [],
      "stateMutability": "nonpayable",
      "type": "function"
    },
    {
      "inputs": [
        {
          "internalType": "uint16",
          "name": "_dstChainId",
          "type": "uint16"
        },
        {
          "internalType": "uint256",
          "name": "_size",
          "type": "uint256"
        }
      ],
      "name": "setPayloadSizeLimit",
      "outputs": [],
      "stateMutability": "nonpayable",
      "type": "function"
    },
    {
      "inputs": [
        {
          "internalType": "address",
          "name": "_precrime",
          "type": "address"
        }
      ],
      "name": "setPrecrime",
      "outputs": [],
      "stateMutability": "nonpayable",
      "type": "function"
    },
    {
      "inputs": [
        {
          "internalType": "uint16",
          "name": "_version",
          "type": "uint16"
        }
      ],
      "name": "setReceiveVersion",
      "outputs": [],
      "stateMutability": "nonpayable",
      "type": "function"
    },
    {
      "inputs": [
        {
          "internalType": "uint16",
          "name": "_version",
          "type": "uint16"
        }
      ],
      "name": "setSendVersion",
      "outputs": [],
      "stateMutability": "nonpayable",
      "type": "function"
    },
    {
      "inputs": [
        {
          "internalType": "uint16",
          "name": "_remoteChainId",
          "type": "uint16"
        },
        {
          "internalType": "bytes",
          "name": "_path",
          "type": "bytes"
        }
      ],
      "name": "setTrustedRemote",
      "outputs": [],
      "stateMutability": "nonpayable",
      "type": "function"
    },
    {
      "inputs": [
        {
          "internalType": "uint16",
          "name": "_remoteChainId",
          "type": "uint16"
        },
        {
          "internalType": "bytes",
          "name": "_remoteAddress",
          "type": "bytes"
        }
      ],
      "name": "setTrustedRemoteAddress",
      "outputs": [],
      "stateMutability": "nonpayable",
      "type": "function"
    },
    {
      "inputs": [
        {
          "internalType": "address",
          "name": "newOwner",
          "type": "address"
        }
      ],
      "name": "transferOwnership",
      "outputs": [],
      "stateMutability": "nonpayable",
      "type": "function"
    },
    {
      "inputs": [
        {
          "internalType": "uint16",
          "name": "",
          "type": "uint16"
        }
      ],
      "name": "trustedRemoteLookup",
      "outputs": [
        {
          "internalType": "bytes",
          "name": "",
          "type": "bytes"
        }
      ],
      "stateMutability": "view",
      "type": "function"
    },
    {
      "stateMutability": "payable",
      "type": "receive"
    }
  ],
  "transactionHash": "0x719792c54c43cb21e948f39be920b6c6ae811493681e479772ea13012acde528",
  "args": [
    "0x66A71Dcef29A0fFBDBE3c6a460a3B5BC225Cd675"
  ],
  "numDeployments": 1,
  "solcInputHash": "a78e9bf74718b5ad08c9162d1ee62bbd",
  "bytecode": "0x60a06040523480156200001157600080fd5b50604051620030fc380380620030fc8339810160408190526200003491620000a6565b8080620000413362000056565b6001600160a01b031660805250620000d89050565b600080546001600160a01b038381166001600160a01b0319831681178455604051919092169283917f8be0079c531659141344cd1fd0a4f28419497f9722a3daafe3b4186f6b6457e09190a35050565b600060208284031215620000b957600080fd5b81516001600160a01b0381168114620000d157600080fd5b9392505050565b608051612fc9620001336000396000818161054101528181610692015281816109d201528181610afa01528181610b9601528181610d59015281816111eb0152818161162601528181611b3201526121fb0152612fc96000f3fe6080604052600436106101db5760003560e01c8063950c8a7411610102578063c446183411610095578063e66f0a7711610064578063e66f0a77146105ff578063eb8d72b71461062f578063f2fde38b1461064f578063f5ecbdbc1461066f57600080fd5b8063c446183414610596578063cbed8b9c146105ac578063d1deba1f146105cc578063df2a5b3b146105df57600080fd5b8063affed0e0116100d1578063affed0e014610519578063b353aaa71461052f578063baf3292d14610563578063bf148da11461058357600080fd5b8063950c8a74146104995780639f38369a146104b9578063a6c3d165146104d9578063abe7aa20146104f957600080fd5b806342d65a8d1161017a5780637533d788116101495780637533d788146103b25780638820446f146103df5780638cfd8f5c1461042f5780638da5cb5b1461046757600080fd5b806342d65a8d1461030e5780635b8c41e61461032e57806366ad5c8a1461037d578063715018a61461039d57600080fd5b806310ddb137116101b657806310ddb137146102495780633c2b09ac146102695780633d8b38f6146102a35780633f1f4fa4146102d357600080fd5b80621d3567146101e757806307e0db17146102095780630df374831461022957600080fd5b366101e257005b600080fd5b3480156101f357600080fd5b50610207610202366004612681565b61068f565b005b34801561021557600080fd5b50610207610224366004612715565b610971565b34801561023557600080fd5b50610207610244366004612730565b610a3a565b34801561025557600080fd5b50610207610264366004612715565b610a99565b34801561027557600080fd5b50610289610284366004612715565b610b31565b604080519283526020830191909152015b60405180910390f35b3480156102af57600080fd5b506102c36102be36600461275a565b610c2e565b604051901515815260200161029a565b3480156102df57600080fd5b506103006102ee366004612715565b60036020526000908152604090205481565b60405190815260200161029a565b34801561031a57600080fd5b5061020761032936600461275a565b610cfa565b34801561033a57600080fd5b5061030061034936600461281c565b6005602090815260009384526040808520845180860184018051928152908401958401959095209452929052825290205481565b34801561038957600080fd5b50610207610398366004612681565b610dc0565b3480156103a957600080fd5b50610207610e9c565b3480156103be57600080fd5b506103d26103cd366004612715565b610ef0565b60405161029a9190612919565b3480156103eb57600080fd5b506104186103fa36600461292c565b60066020526000908152604090205460ff8082169161010090041682565b60408051921515835290151560208301520161029a565b34801561043b57600080fd5b5061030061044a366004612945565b600260209081526000928352604080842090915290825290205481565b34801561047357600080fd5b506000546001600160a01b03165b6040516001600160a01b03909116815260200161029a565b3480156104a557600080fd5b50600454610481906001600160a01b031681565b3480156104c557600080fd5b506103d26104d4366004612715565b610f8a565b3480156104e557600080fd5b506102076104f436600461275a565b6110a1565b34801561050557600080fd5b50610289610514366004612730565b611174565b34801561052557600080fd5b5061030060085481565b34801561053b57600080fd5b506104817f000000000000000000000000000000000000000000000000000000000000000081565b34801561056f57600080fd5b5061020761057e36600461298f565b611286565b610207610591366004612730565b61132f565b3480156105a257600080fd5b5061030061271081565b3480156105b857600080fd5b506102076105c73660046129aa565b6115c7565b6102076105da366004612681565b61169c565b3480156105eb57600080fd5b506102076105fa366004612a19565b6118b4565b34801561060b57600080fd5b506102c361061a36600461292c565b60076020526000908152604090205460ff1681565b34801561063b57600080fd5b5061020761064a36600461275a565b6119ae565b34801561065b57600080fd5b5061020761066a36600461298f565b611a48565b34801561067b57600080fd5b506103d261068a366004612a55565b611b01565b337f00000000000000000000000000000000000000000000000000000000000000006001600160a01b03161461070c5760405162461bcd60e51b815260206004820152601e60248201527f4c7a4170703a20696e76616c696420656e64706f696e742063616c6c6572000060448201526064015b60405180910390fd5b61ffff86166000908152600160205260408120805461072a90612aa0565b80601f016020809104026020016040519081016040528092919081815260200182805461075690612aa0565b80156107a35780601f10610778576101008083540402835291602001916107a3565b820191906000526020600020905b81548152906001019060200180831161078657829003601f168201915b505050505090506107e1604051806040016040528060128152602001710bee6e4c682c8c8e4cae6e65cd8cadccee8d60731b81525087879050611bc1565b610816604051806040016040528060128152602001710bee6e4c682c8c8e4cae6e65cd8cadccee8d60731b8152508251611bc1565b61085586868080601f016020809104026020016040519081016040528093929190818152602001838380828437600092019190915250611c0a92505050565b61085e81611c0a565b80518514801561086f575060008151115b801561089757508051602082012060405161088d9088908890612adb565b6040518091039020145b6108f25760405162461bcd60e51b815260206004820152602660248201527f4c7a4170703a20696e76616c696420736f757263652073656e64696e6720636f6044820152651b9d1c9858dd60d21b6064820152608401610703565b6109688787878080601f01602080910402602001604051908101604052809392919081815260200183838082843760009201919091525050604080516020601f8a018190048102820181019092528881528a935091508890889081908401838280828437600092019190915250611c4d92505050565b50505050505050565b6000546001600160a01b031633146109b95760405162461bcd60e51b81526020600482018190526024820152600080516020612f748339815191526044820152606401610703565b6040516307e0db1760e01b815261ffff821660048201527f00000000000000000000000000000000000000000000000000000000000000006001600160a01b0316906307e0db17906024015b600060405180830381600087803b158015610a1f57600080fd5b505af1158015610a33573d6000803e3d6000fd5b5050505050565b6000546001600160a01b03163314610a825760405162461bcd60e51b81526020600482018190526024820152600080516020612f748339815191526044820152606401610703565b61ffff909116600090815260036020526040902055565b6000546001600160a01b03163314610ae15760405162461bcd60e51b81526020600482018190526024820152600080516020612f748339815191526044820152606401610703565b6040516310ddb13760e01b815261ffff821660048201527f00000000000000000000000000000000000000000000000000000000000000006001600160a01b0316906310ddb13790602401610a05565b604051600160f01b6020820152620927c060228201526000908190819060420160408051601f19818403018152828252600019602084015292506000910160408051601f198184030181529082905263040a7bb160e41b825291506001600160a01b037f000000000000000000000000000000000000000000000000000000000000000016906340a7bb1090610bd4908890309086906000908990600401612aeb565b604080518083038186803b158015610beb57600080fd5b505afa158015610bff573d6000803e3d6000fd5b505050506040513d601f19601f82011682018060405250810190610c239190612b3d565b935093505050915091565b61ffff831660009081526001602052604081208054829190610c4f90612aa0565b80601f0160208091040260200160405190810160405280929190818152602001828054610c7b90612aa0565b8015610cc85780601f10610c9d57610100808354040283529160200191610cc8565b820191906000526020600020905b815481529060010190602001808311610cab57829003601f168201915b505050505090508383604051610cdf929190612adb565b60405180910390208180519060200120149150509392505050565b6000546001600160a01b03163314610d425760405162461bcd60e51b81526020600482018190526024820152600080516020612f748339815191526044820152606401610703565b6040516342d65a8d60e01b81526001600160a01b037f000000000000000000000000000000000000000000000000000000000000000016906342d65a8d90610d9290869086908690600401612b8a565b600060405180830381600087803b158015610dac57600080fd5b505af1158015610968573d6000803e3d6000fd5b333014610e1e5760405162461bcd60e51b815260206004820152602660248201527f4e6f6e626c6f636b696e674c7a4170703a2063616c6c6572206d7573742062656044820152650204c7a4170760d41b6064820152608401610703565b610e948686868080601f01602080910402602001604051908101604052809392919081815260200183838082843760009201919091525050604080516020601f890181900481028201810190925287815289935091508790879081908401838280828437600092019190915250611cde92505050565b505050505050565b6000546001600160a01b03163314610ee45760405162461bcd60e51b81526020600482018190526024820152600080516020612f748339815191526044820152606401610703565b610eee6000611ec9565b565b60016020526000908152604090208054610f0990612aa0565b80601f0160208091040260200160405190810160405280929190818152602001828054610f3590612aa0565b8015610f825780601f10610f5757610100808354040283529160200191610f82565b820191906000526020600020905b815481529060010190602001808311610f6557829003601f168201915b505050505081565b61ffff8116600090815260016020526040812080546060929190610fad90612aa0565b80601f0160208091040260200160405190810160405280929190818152602001828054610fd990612aa0565b80156110265780601f10610ffb57610100808354040283529160200191611026565b820191906000526020600020905b81548152906001019060200180831161100957829003601f168201915b5050505050905080516000141561107f5760405162461bcd60e51b815260206004820152601d60248201527f4c7a4170703a206e6f20747275737465642070617468207265636f72640000006044820152606401610703565b61109a6000601483516110929190612bbe565b839190611f26565b9392505050565b6000546001600160a01b031633146110e95760405162461bcd60e51b81526020600482018190526024820152600080516020612f748339815191526044820152606401610703565b8181306040516020016110fe93929190612bd5565b60408051601f1981840301815291815261ffff8516600090815260016020908152919020825161113393919290910190612503565b507f8c0400cfe2d1199b1a725c78960bcc2a344d869b80590d0f2bd005db15a572ce83838360405161116793929190612b8a565b60405180910390a1505050565b61ffff821660009081526001602090815260408083209051839283926111a692600292620aae60928992909101612bfb565b60408051601f19818403018152828252600019602084015292506000910160408051601f198184030181529082905263040a7bb160e41b825291506001600160a01b037f000000000000000000000000000000000000000000000000000000000000000016906340a7bb1090611229908990309086906000908990600401612aeb565b604080518083038186803b15801561124057600080fd5b505afa158015611254573d6000803e3d6000fd5b505050506040513d601f19601f820116820180604052508101906112789190612b3d565b9350935050505b9250929050565b6000546001600160a01b031633146112ce5760405162461bcd60e51b81526020600482018190526024820152600080516020612f748339815191526044820152606401610703565b6004805473ffffffffffffffffffffffffffffffffffffffff19166001600160a01b0383169081179091556040519081527f5db758e995a17ec1ad84bdef7e8c3293a0bd6179bcce400dff5d4c3d87db726b9060200160405180910390a150565b600047116113a7576040805162461bcd60e51b81526020600482015260248101919091527f7468652062616c616e6365206f66207468697320636f6e74726163742069732060448201527f302e20706c732073656e642067617320666f72206d65737361676520666565736064820152608401610703565b6000600660006008600081546113bc90612cbf565b9182905550815260208082019290925260409081016000908120805460ff191660011781556008548351948501529350910160408051601f1981840301815290829052630ea67af160e31b825261ffff861660048301529150600090600290620aae6090869061148d9085903090637533d7889060240160006040518083038186803b15801561144b57600080fd5b505afa15801561145f573d6000803e3d6000fd5b505050506040513d6000823e601f3d908101601f191682016040526114879190810190612cda565b9061204e565b6040516020016114ef949392919060f09490941b7fffff0000000000000000000000000000000000000000000000000000000000001684526002840192909252602283015260601b6bffffffffffffffffffffffff1916604282015260560190565b604051602081830303815290604052905061150f858333600085346120c4565b604051630ea67af160e31b815261ffff86166004820181905230917fd3b01b57b25c5a506ceef68a2e5ce63cf91fe09d5270a8bb49839a64d5b1b1f7908390637533d7889060240160006040518083038186803b15801561156f57600080fd5b505afa158015611583573d6000803e3d6000fd5b505050506040513d6000823e601f3d908101601f191682016040526115ab9190810190612cda565b6040516115b89190612919565b60405180910390a35050505050565b6000546001600160a01b0316331461160f5760405162461bcd60e51b81526020600482018190526024820152600080516020612f748339815191526044820152606401610703565b6040516332fb62e760e21b81526001600160a01b037f0000000000000000000000000000000000000000000000000000000000000000169063cbed8b9c906116639088908890889088908890600401612d48565b600060405180830381600087803b15801561167d57600080fd5b505af1158015611691573d6000803e3d6000fd5b505050505050505050565b61ffff861660009081526005602052604080822090516116bf9088908890612adb565b908152604080516020928190038301902067ffffffffffffffff8716600090815292529020549050806117405760405162461bcd60e51b815260206004820152602360248201527f4e6f6e626c6f636b696e674c7a4170703a206e6f2073746f726564206d65737360448201526261676560e81b6064820152608401610703565b808383604051611751929190612adb565b6040518091039020146117b05760405162461bcd60e51b815260206004820152602160248201527f4e6f6e626c6f636b696e674c7a4170703a20696e76616c6964207061796c6f616044820152601960fa1b6064820152608401610703565b61ffff871660009081526005602052604080822090516117d39089908990612adb565b908152604080516020928190038301812067ffffffffffffffff8916600090815290845282902093909355601f8801829004820283018201905286825261186c918991899089908190840183828082843760009201919091525050604080516020601f8a018190048102820181019092528881528a935091508890889081908401838280828437600092019190915250611cde92505050565b7fc264d91f3adc5588250e1551f547752ca0cfa8f6b530d243b9f9f4cab10ea8e587878787856040516118a3959493929190612d81565b60405180910390a150505050505050565b6000546001600160a01b031633146118fc5760405162461bcd60e51b81526020600482018190526024820152600080516020612f748339815191526044820152606401610703565b6000811161194c5760405162461bcd60e51b815260206004820152601560248201527f4c7a4170703a20696e76616c6964206d696e47617300000000000000000000006044820152606401610703565b61ffff83811660008181526002602090815260408083209487168084529482529182902085905581519283528201929092529081018290527f9d5c7c0b934da8fefa9c7760c98383778a12dfbfc0c3b3106518f43fb9508ac090606001611167565b6000546001600160a01b031633146119f65760405162461bcd60e51b81526020600482018190526024820152600080516020612f748339815191526044820152606401610703565b61ffff83166000908152600160205260409020611a14908383612587565b507ffa41487ad5d6728f0b19276fa1eddc16558578f5109fc39d2dc33c3230470dab83838360405161116793929190612b8a565b6000546001600160a01b03163314611a905760405162461bcd60e51b81526020600482018190526024820152600080516020612f748339815191526044820152606401610703565b6001600160a01b038116611af55760405162461bcd60e51b815260206004820152602660248201527f4f776e61626c653a206e6577206f776e657220697320746865207a65726f206160448201526564647265737360d01b6064820152608401610703565b611afe81611ec9565b50565b604051633d7b2f6f60e21b815261ffff808616600483015284166024820152306044820152606481018290526060907f00000000000000000000000000000000000000000000000000000000000000006001600160a01b03169063f5ecbdbc9060840160006040518083038186803b158015611b7c57600080fd5b505afa158015611b90573d6000803e3d6000fd5b505050506040513d6000823e601f3d908101601f19168201604052611bb89190810190612cda565b95945050505050565b611c068282604051602401611bd7929190612dbd565b60408051601f198184030181529190526020810180516001600160e01b03166309710a9d60e41b179052612277565b5050565b611afe81604051602401611c1e9190612919565b60408051601f198184030181529190526020810180516001600160e01b03166305f3bfab60e11b179052612277565b600080611cc85a60966366ad5c8a60e01b89898989604051602401611c759493929190612ddf565b60408051601f198184030181529190526020810180516001600160e01b03167fffffffff000000000000000000000000000000000000000000000000000000009093169290921790915230929190612298565b9150915081610e9457610e948686868685612323565b611d07604051806040016040528060088152602001671c9958d95a5d995960c21b8152506123c1565b600081806020019051810190611d1d9190612e1e565b6000818152600660209081526040918290208251808401909352600a83526917db595cdcd859d9525960b21b91830191909152805492935091611d659190849060ff16612404565b6040805180820190915260048152631cd95b9d60e21b60208201528154611d8f919060ff16612450565b805460ff1615611dab57805461ff001916610100178155610e94565b6000828152600760209081526040808320805460ff1916600117905551600160f01b91810191909152620927c0602282015260420160405160208183030381529060405290506000611dfc88610b31565b509050611e0e888633600086866120c4565b604051630ea67af160e31b815261ffff89166004820181905230917fd3b01b57b25c5a506ceef68a2e5ce63cf91fe09d5270a8bb49839a64d5b1b1f7908390637533d7889060240160006040518083038186803b158015611e6e57600080fd5b505afa158015611e82573d6000803e3d6000fd5b505050506040513d6000823e601f3d908101601f19168201604052611eaa9190810190612cda565b604051611eb79190612919565b60405180910390a35050505050505050565b600080546001600160a01b0383811673ffffffffffffffffffffffffffffffffffffffff19831681178455604051919092169283917f8be0079c531659141344cd1fd0a4f28419497f9722a3daafe3b4186f6b6457e09190a35050565b606081611f3481601f612e37565b1015611f825760405162461bcd60e51b815260206004820152600e60248201527f736c6963655f6f766572666c6f770000000000000000000000000000000000006044820152606401610703565b611f8c8284612e37565b84511015611fdc5760405162461bcd60e51b815260206004820152601160248201527f736c6963655f6f75744f66426f756e64730000000000000000000000000000006044820152606401610703565b606082158015611ffb5760405191506000825260208201604052612045565b6040519150601f8416801560200281840101858101878315602002848b0101015b8183101561203457805183526020928301920161201c565b5050858452601f01601f1916604052505b50949350505050565b600061205b826014612e37565b835110156120ab5760405162461bcd60e51b815260206004820152601560248201527f746f416464726573735f6f75744f66426f756e647300000000000000000000006044820152606401610703565b5001602001516c01000000000000000000000000900490565b61ffff8616600090815260016020526040812080546120e290612aa0565b80601f016020809104026020016040519081016040528092919081815260200182805461210e90612aa0565b801561215b5780601f106121305761010080835404028352916020019161215b565b820191906000526020600020905b81548152906001019060200180831161213e57829003601f168201915b505050505090508051600014156121da5760405162461bcd60e51b815260206004820152603060248201527f4c7a4170703a2064657374696e6174696f6e20636861696e206973206e6f742060448201527f61207472757374656420736f75726365000000000000000000000000000000006064820152608401610703565b6121e5878751612495565b60405162c5803160e81b81526001600160a01b037f0000000000000000000000000000000000000000000000000000000000000000169063c580310090849061223c908b9086908c908c908c908c90600401612e4f565b6000604051808303818588803b15801561225557600080fd5b505af1158015612269573d6000803e3d6000fd5b505050505050505050505050565b80516a636f6e736f6c652e6c6f67602083016000808483855afa5050505050565b6000606060008060008661ffff1667ffffffffffffffff8111156122be576122be6127ad565b6040519080825280601f01601f1916602001820160405280156122e8576020820181803683370190505b50905060008087516020890160008d8df191503d92508683111561230a578692505b828152826000602083013e909890975095505050505050565b8180519060200120600560008761ffff1661ffff168152602001908152602001600020856040516123549190612eb6565b90815260408051918290036020908101832067ffffffffffffffff88166000908152915220919091557fe183f33de2837795525b4792ca4cd60535bd77c53b7e7030060bfcf5734d6b0c906123b29087908790879087908790612ed2565b60405180910390a15050505050565b611afe816040516024016123d59190612919565b60408051601f198184030181529190526020810180516001600160e01b031663104c13eb60e21b179052612277565b61244b83838360405160240161241c93929190612f25565b60408051601f198184030181529190526020810180516001600160e01b031663f102ee0560e01b179052612277565b505050565b611c068282604051602401612466929190612f4f565b60408051601f198184030181529190526020810180516001600160e01b031663c3b5563560e01b179052612277565b61ffff8216600090815260036020526040902054806124b357506127105b8082111561244b5760405162461bcd60e51b815260206004820181905260248201527f4c7a4170703a207061796c6f61642073697a6520697320746f6f206c617267656044820152606401610703565b82805461250f90612aa0565b90600052602060002090601f0160209004810192826125315760008555612577565b82601f1061254a57805160ff1916838001178555612577565b82800160010185558215612577579182015b8281111561257757825182559160200191906001019061255c565b506125839291506125fb565b5090565b82805461259390612aa0565b90600052602060002090601f0160209004810192826125b55760008555612577565b82601f106125ce5782800160ff19823516178555612577565b82800160010185558215612577579182015b828111156125775782358255916020019190600101906125e0565b5b8082111561258357600081556001016125fc565b803561ffff8116811461262257600080fd5b919050565b60008083601f84011261263957600080fd5b50813567ffffffffffffffff81111561265157600080fd5b60208301915083602082850101111561127f57600080fd5b803567ffffffffffffffff8116811461262257600080fd5b6000806000806000806080878903121561269a57600080fd5b6126a387612610565b9550602087013567ffffffffffffffff808211156126c057600080fd5b6126cc8a838b01612627565b90975095508591506126e060408a01612669565b945060608901359150808211156126f657600080fd5b5061270389828a01612627565b979a9699509497509295939492505050565b60006020828403121561272757600080fd5b61109a82612610565b6000806040838503121561274357600080fd5b61274c83612610565b946020939093013593505050565b60008060006040848603121561276f57600080fd5b61277884612610565b9250602084013567ffffffffffffffff81111561279457600080fd5b6127a086828701612627565b9497909650939450505050565b634e487b7160e01b600052604160045260246000fd5b604051601f8201601f1916810167ffffffffffffffff811182821017156127ec576127ec6127ad565b604052919050565b600067ffffffffffffffff82111561280e5761280e6127ad565b50601f01601f191660200190565b60008060006060848603121561283157600080fd5b61283a84612610565b9250602084013567ffffffffffffffff81111561285657600080fd5b8401601f8101861361286757600080fd5b803561287a612875826127f4565b6127c3565b81815287602083850101111561288f57600080fd5b816020840160208301376000602083830101528094505050506128b460408501612669565b90509250925092565b60005b838110156128d85781810151838201526020016128c0565b838111156128e7576000848401525b50505050565b600081518084526129058160208601602086016128bd565b601f01601f19169290920160200192915050565b60208152600061109a60208301846128ed565b60006020828403121561293e57600080fd5b5035919050565b6000806040838503121561295857600080fd5b61296183612610565b915061296f60208401612610565b90509250929050565b80356001600160a01b038116811461262257600080fd5b6000602082840312156129a157600080fd5b61109a82612978565b6000806000806000608086880312156129c257600080fd5b6129cb86612610565b94506129d960208701612610565b935060408601359250606086013567ffffffffffffffff8111156129fc57600080fd5b612a0888828901612627565b969995985093965092949392505050565b600080600060608486031215612a2e57600080fd5b612a3784612610565b9250612a4560208501612610565b9150604084013590509250925092565b60008060008060808587031215612a6b57600080fd5b612a7485612610565b9350612a8260208601612610565b9250612a9060408601612978565b9396929550929360600135925050565b600181811c90821680612ab457607f821691505b60208210811415612ad557634e487b7160e01b600052602260045260246000fd5b50919050565b8183823760009101908152919050565b61ffff861681526001600160a01b038516602082015260a060408201526000612b1760a08301866128ed565b84151560608401528281036080840152612b3181856128ed565b98975050505050505050565b60008060408385031215612b5057600080fd5b505080516020909101519092909150565b81835281816020850137506000828201602090810191909152601f909101601f19169091010190565b61ffff84168152604060208201526000611bb8604083018486612b61565b634e487b7160e01b600052601160045260246000fd5b600082821015612bd057612bd0612ba8565b500390565b8284823760609190911b6bffffffffffffffffffffffff19169101908152601401919050565b61ffff60f01b8560f01b168152836002820152826022820152600060426000845481600182811c915080831680612c3357607f831692505b6020808410821415612c5357634e487b7160e01b86526022600452602486fd5b818015612c675760018114612c7c57612cad565b60ff1986168a890152848a0188019650612cad565b60008b81526020902060005b86811015612ca35781548c82018b0152908501908301612c88565b505087858b010196505b50949c9b505050505050505050505050565b6000600019821415612cd357612cd3612ba8565b5060010190565b600060208284031215612cec57600080fd5b815167ffffffffffffffff811115612d0357600080fd5b8201601f81018413612d1457600080fd5b8051612d22612875826127f4565b818152856020838501011115612d3757600080fd5b611bb88260208301602086016128bd565b600061ffff808816835280871660208401525084604083015260806060830152612d76608083018486612b61565b979650505050505050565b61ffff86168152608060208201526000612d9f608083018688612b61565b67ffffffffffffffff94909416604083015250606001529392505050565b604081526000612dd060408301856128ed565b90508260208301529392505050565b61ffff85168152608060208201526000612dfc60808301866128ed565b67ffffffffffffffff851660408401528281036060840152612d7681856128ed565b600060208284031215612e3057600080fd5b5051919050565b60008219821115612e4a57612e4a612ba8565b500190565b61ffff8716815260c060208201526000612e6c60c08301886128ed565b8281036040840152612e7e81886128ed565b6001600160a01b0387811660608601528616608085015283810360a08501529050612ea981856128ed565b9998505050505050505050565b60008251612ec88184602087016128bd565b9190910192915050565b61ffff8616815260a060208201526000612eef60a08301876128ed565b67ffffffffffffffff861660408401528281036060840152612f1181866128ed565b90508281036080840152612b3181856128ed565b606081526000612f3860608301866128ed565b602083019490945250901515604090910152919050565b604081526000612f6260408301856128ed565b90508215156020830152939250505056fe4f776e61626c653a2063616c6c6572206973206e6f7420746865206f776e6572a26469706673582212202a9f2125bd1004b19ab21201530b60a8109f70fc8ba29387f9c41cb7efddd00464736f6c63430008090033",
  "devdoc": {
    "kind": "dev",
    "methods": {
      "owner()": {
        "details": "Returns the address of the current owner."
      },
      "renounceOwnership()": {
        "details": "Leaves the contract without owner. It will not be possible to call `onlyOwner` functions anymore. Can only be called by the current owner. NOTE: Renouncing ownership will leave the contract without an owner, thereby removing any functionality that is only available to the owner."
      },
      "transferOwnership(address)": {
        "details": "Transfers ownership of the contract to a new account (`newOwner`). Can only be called by the current owner."
      }
    },
    "version": 1
  },
  "userdoc": {
    "kind": "user",
    "methods": {},
    "version": 1
  },
  "storageLayout": {
    "storage": [
      {
        "astId": 3560,
        "contract": "contracts/PingPong.sol:PingPong",
        "label": "_owner",
        "offset": 0,
        "slot": "0",
        "type": "t_address"
      },
      {
        "astId": 797,
        "contract": "contracts/PingPong.sol:PingPong",
        "label": "trustedRemoteLookup",
        "offset": 0,
        "slot": "1",
        "type": "t_mapping(t_uint16,t_bytes_storage)"
      },
      {
        "astId": 803,
        "contract": "contracts/PingPong.sol:PingPong",
        "label": "minDstGasLookup",
        "offset": 0,
        "slot": "2",
        "type": "t_mapping(t_uint16,t_mapping(t_uint16,t_uint256))"
      },
      {
        "astId": 807,
        "contract": "contracts/PingPong.sol:PingPong",
        "label": "payloadSizeLimitLookup",
        "offset": 0,
        "slot": "3",
        "type": "t_mapping(t_uint16,t_uint256)"
      },
      {
        "astId": 809,
        "contract": "contracts/PingPong.sol:PingPong",
        "label": "precrime",
        "offset": 0,
        "slot": "4",
        "type": "t_address"
      },
      {
        "astId": 1374,
        "contract": "contracts/PingPong.sol:PingPong",
        "label": "failedMessages",
        "offset": 0,
        "slot": "5",
        "type": "t_mapping(t_uint16,t_mapping(t_bytes_memory_ptr,t_mapping(t_uint64,t_bytes32)))"
      },
      {
        "astId": 56,
        "contract": "contracts/PingPong.sol:PingPong",
        "label": "sent",
        "offset": 0,
        "slot": "6",
        "type": "t_mapping(t_uint256,t_struct(PingStatus)51_storage)"
      },
      {
        "astId": 60,
        "contract": "contracts/PingPong.sol:PingPong",
        "label": "received",
        "offset": 0,
        "slot": "7",
        "type": "t_mapping(t_uint256,t_bool)"
      },
      {
        "astId": 62,
        "contract": "contracts/PingPong.sol:PingPong",
        "label": "nonce",
        "offset": 0,
        "slot": "8",
        "type": "t_uint256"
      }
    ],
    "types": {
      "t_address": {
        "encoding": "inplace",
        "label": "address",
        "numberOfBytes": "20"
      },
      "t_bool": {
        "encoding": "inplace",
        "label": "bool",
        "numberOfBytes": "1"
      },
      "t_bytes32": {
        "encoding": "inplace",
        "label": "bytes32",
        "numberOfBytes": "32"
      },
      "t_bytes_memory_ptr": {
        "encoding": "bytes",
        "label": "bytes",
        "numberOfBytes": "32"
      },
      "t_bytes_storage": {
        "encoding": "bytes",
        "label": "bytes",
        "numberOfBytes": "32"
      },
      "t_mapping(t_bytes_memory_ptr,t_mapping(t_uint64,t_bytes32))": {
        "encoding": "mapping",
        "key": "t_bytes_memory_ptr",
        "label": "mapping(bytes => mapping(uint64 => bytes32))",
        "numberOfBytes": "32",
        "value": "t_mapping(t_uint64,t_bytes32)"
      },
      "t_mapping(t_uint16,t_bytes_storage)": {
        "encoding": "mapping",
        "key": "t_uint16",
        "label": "mapping(uint16 => bytes)",
        "numberOfBytes": "32",
        "value": "t_bytes_storage"
      },
      "t_mapping(t_uint16,t_mapping(t_bytes_memory_ptr,t_mapping(t_uint64,t_bytes32)))": {
        "encoding": "mapping",
        "key": "t_uint16",
        "label": "mapping(uint16 => mapping(bytes => mapping(uint64 => bytes32)))",
        "numberOfBytes": "32",
        "value": "t_mapping(t_bytes_memory_ptr,t_mapping(t_uint64,t_bytes32))"
      },
      "t_mapping(t_uint16,t_mapping(t_uint16,t_uint256))": {
        "encoding": "mapping",
        "key": "t_uint16",
        "label": "mapping(uint16 => mapping(uint16 => uint256))",
        "numberOfBytes": "32",
        "value": "t_mapping(t_uint16,t_uint256)"
      },
      "t_mapping(t_uint16,t_uint256)": {
        "encoding": "mapping",
        "key": "t_uint16",
        "label": "mapping(uint16 => uint256)",
        "numberOfBytes": "32",
        "value": "t_uint256"
      },
      "t_mapping(t_uint256,t_bool)": {
        "encoding": "mapping",
        "key": "t_uint256",
        "label": "mapping(uint256 => bool)",
        "numberOfBytes": "32",
        "value": "t_bool"
      },
      "t_mapping(t_uint256,t_struct(PingStatus)51_storage)": {
        "encoding": "mapping",
        "key": "t_uint256",
        "label": "mapping(uint256 => struct PingPong.PingStatus)",
        "numberOfBytes": "32",
        "value": "t_struct(PingStatus)51_storage"
      },
      "t_mapping(t_uint64,t_bytes32)": {
        "encoding": "mapping",
        "key": "t_uint64",
        "label": "mapping(uint64 => bytes32)",
        "numberOfBytes": "32",
        "value": "t_bytes32"
      },
      "t_struct(PingStatus)51_storage": {
        "encoding": "inplace",
        "label": "struct PingPong.PingStatus",
        "members": [
          {
            "astId": 48,
            "contract": "contracts/PingPong.sol:PingPong",
            "label": "sent",
            "offset": 0,
            "slot": "0",
            "type": "t_bool"
          },
          {
            "astId": 50,
            "contract": "contracts/PingPong.sol:PingPong",
            "label": "receivedCallback",
            "offset": 1,
            "slot": "0",
            "type": "t_bool"
          }
        ],
        "numberOfBytes": "32"
      },
      "t_uint16": {
        "encoding": "inplace",
        "label": "uint16",
        "numberOfBytes": "2"
      },
      "t_uint256": {
        "encoding": "inplace",
        "label": "uint256",
        "numberOfBytes": "32"
      },
      "t_uint64": {
        "encoding": "inplace",
        "label": "uint64",
        "numberOfBytes": "8"
      }
    }
  }
}